{
  "contractName": "Crime",
  "abi": [
    {
      "constant": false,
      "inputs": [],
      "name": "getnode",
      "outputs": [
        {
          "name": "",
          "type": "address[]"
        }
      ],
      "payable": false,
      "stateMutability": "nonpayable",
      "type": "function",
      "signature": "0xb623ae56"
    },
    {
      "constant": false,
      "inputs": [
        {
          "name": "_address",
          "type": "address"
        }
      ],
      "name": "addnode",
      "outputs": [],
      "payable": false,
      "stateMutability": "nonpayable",
      "type": "function",
      "signature": "0x36cc8454"
    },
    {
      "constant": false,
      "inputs": [
        {
          "name": "_address",
          "type": "address"
        }
      ],
      "name": "doesnodeexist",
      "outputs": [
        {
          "name": "check",
          "type": "bool"
        }
      ],
      "payable": false,
      "stateMutability": "nonpayable",
      "type": "function",
      "signature": "0xdd37dfa9"
    },
    {
      "constant": false,
      "inputs": [
        {
          "name": "_aadhaar",
          "type": "uint256"
        },
        {
          "name": "_ipfshash",
          "type": "string"
        }
      ],
      "name": "append",
      "outputs": [],
      "payable": false,
      "stateMutability": "nonpayable",
      "type": "function",
      "signature": "0xc5406888"
    },
    {
      "constant": false,
      "inputs": [
        {
          "name": "_aadhaar",
          "type": "uint256"
        },
        {
          "name": "_name",
          "type": "string"
        },
        {
          "name": "_age",
          "type": "uint256"
        },
        {
          "name": "_addr",
          "type": "string"
        },
        {
          "name": "_fingerprint",
          "type": "string"
        },
        {
          "name": "_ipfshash",
          "type": "string"
        }
      ],
      "name": "enterdetails",
      "outputs": [],
      "payable": false,
      "stateMutability": "nonpayable",
      "type": "function",
      "signature": "0x6a7fda8b"
    },
    {
      "constant": false,
      "inputs": [
        {
          "name": "_aadhaar",
          "type": "uint256"
        }
      ],
      "name": "viewdetails",
      "outputs": [
        {
          "name": "aadhaar",
          "type": "uint256"
        },
        {
          "name": "name",
          "type": "string"
        },
        {
          "name": "age",
          "type": "uint256"
        },
        {
          "name": "addr",
          "type": "string"
        },
        {
          "name": "fingerprint",
          "type": "string"
        },
        {
          "name": "ipfshash",
          "type": "string"
        }
      ],
      "payable": false,
      "stateMutability": "nonpayable",
      "type": "function",
      "signature": "0xf7d59d67"
    }
  ],
  "bytecode": "0x6080604052600060045534801561001557600080fd5b5061116f806100256000396000f3fe608060405260043610610078576000357c0100000000000000000000000000000000000000000000000000000000900463ffffffff16806336cc84541461007d5780636a7fda8b146100ce578063b623ae561461036f578063c5406888146103db578063dd37dfa9146104ad578063f7d59d6714610516575b600080fd5b34801561008957600080fd5b506100cc600480360360208110156100a057600080fd5b81019080803573ffffffffffffffffffffffffffffffffffffffff16906020019092919050505061071c565b005b3480156100da57600080fd5b5061036d600480360360c08110156100f157600080fd5b81019080803590602001909291908035906020019064010000000081111561011857600080fd5b82018360208201111561012a57600080fd5b8035906020019184600183028401116401000000008311171561014c57600080fd5b91908080601f016020809104026020016040519081016040528093929190818152602001838380828437600081840152601f19601f82011690508083019250505050505050919291929080359060200190929190803590602001906401000000008111156101b957600080fd5b8201836020820111156101cb57600080fd5b803590602001918460018302840111640100000000831117156101ed57600080fd5b91908080601f016020809104026020016040519081016040528093929190818152602001838380828437600081840152601f19601f8201169050808301925050505050505091929192908035906020019064010000000081111561025057600080fd5b82018360208201111561026257600080fd5b8035906020019184600183028401116401000000008311171561028457600080fd5b91908080601f016020809104026020016040519081016040528093929190818152602001838380828437600081840152601f19601f820116905080830192505050505050509192919290803590602001906401000000008111156102e757600080fd5b8201836020820111156102f957600080fd5b8035906020019184600183028401116401000000008311171561031b57600080fd5b91908080601f016020809104026020016040519081016040528093929190818152602001838380828437600081840152601f19601f820116905080830192505050505050509192919290505050610785565b005b34801561037b57600080fd5b5061038461091b565b6040518080602001828103825283818151815260200191508051906020019060200280838360005b838110156103c75780820151818401526020810190506103ac565b505050509050019250505060405180910390f35b3480156103e757600080fd5b506104ab600480360360408110156103fe57600080fd5b81019080803590602001909291908035906020019064010000000081111561042557600080fd5b82018360208201111561043757600080fd5b8035906020019184600183028401116401000000008311171561045957600080fd5b91908080601f016020809104026020016040519081016040528093929190818152602001838380828437600081840152601f19601f8201169050808301925050505050505091929192905050506109a9565b005b3480156104b957600080fd5b506104fc600480360360208110156104d057600080fd5b81019080803573ffffffffffffffffffffffffffffffffffffffff169060200190929190505050610b09565b604051808215151515815260200191505060405180910390f35b34801561052257600080fd5b5061054f6004803603602081101561053957600080fd5b8101908080359060200190929190505050610bc0565b604051808781526020018060200186815260200180602001806020018060200185810385528a818151815260200191508051906020019080838360005b838110156105a757808201518184015260208101905061058c565b50505050905090810190601f1680156105d45780820380516001836020036101000a031916815260200191505b50858103845288818151815260200191508051906020019080838360005b8381101561060d5780820151818401526020810190506105f2565b50505050905090810190601f16801561063a5780820380516001836020036101000a031916815260200191505b50858103835287818151815260200191508051906020019080838360005b83811015610673578082015181840152602081019050610658565b50505050905090810190601f1680156106a05780820380516001836020036101000a031916815260200191505b50858103825286818151815260200191508051906020019080838360005b838110156106d95780820151818401526020810190506106be565b50505050905090810190601f1680156107065780820380516001836020036101000a031916815260200191505b509a505050505050505050505060405180910390f35b60038190806001815401808255809150509060018203906000526020600020016000909192909190916101000a81548173ffffffffffffffffffffffffffffffffffffffff021916908373ffffffffffffffffffffffffffffffffffffffff1602179055505050565b856002600088815260200190815260200160002060000181905550846002600088815260200190815260200160002060010190805190602001906107ca92919061109e565b50826002600088815260200190815260200160002060020190805190602001906107f592919061109e565b508360026000888152602001908152602001600020600301819055508160026000888152602001908152602001600020600401908051906020019061083b92919061109e565b506002600087815260200190815260200160002060050181908060018154018082558091505090600182039060005260206000200160009091929091909150908051906020019061088d92919061109e565b505060016002600088815260200190815260200160002060060160146101000a81548160ff021916908315150217905550336002600088815260200190815260200160002060060160006101000a81548173ffffffffffffffffffffffffffffffffffffffff021916908373ffffffffffffffffffffffffffffffffffffffff160217905550505050505050565b6060600380548060200260200160405190810160405280929190818152602001828054801561099f57602002820191906000526020600020905b8160009054906101000a900473ffffffffffffffffffffffffffffffffffffffff1673ffffffffffffffffffffffffffffffffffffffff1681526020019060010190808311610955575b5050505050905090565b60006109b483610ee1565b9050600115158115151415610a705760026000848152602001908152602001600020600501829080600181540180825580915050906001820390600052602060002001600090919290919091509080519060200190610a1492919061109e565b5050336002600085815260200190815260200160002060060160006101000a81548173ffffffffffffffffffffffffffffffffffffffff021916908373ffffffffffffffffffffffffffffffffffffffff160217905550610b04565b6040517f08c379a00000000000000000000000000000000000000000000000000000000081526004018080602001828103825260258152602001807f43616e6e6f7420417070656e64202e2e5265636f726420646f6573206e6f742081526020017f657869737400000000000000000000000000000000000000000000000000000081525060400191505060405180910390fd5b505050565b600080600090505b600380549050811015610ba157600381815481101515610b2d57fe5b9060005260206000200160009054906101000a900473ffffffffffffffffffffffffffffffffffffffff1673ffffffffffffffffffffffffffffffffffffffff168373ffffffffffffffffffffffffffffffffffffffff161415610b945760016004819055505b8080600101915050610b11565b5060016004541415610bb65760019050610bbb565b600090505b919050565b6000606060006060806060610bd487610f26565b60009080519060200190610be992919061109e565b50600260008881526020019081526020016000206000015460026000898152602001908152602001600020600101600260008a815260200190815260200160002060030154600260008b8152602001908152602001600020600201600260008c81526020019081526020016000206004016000848054600181600116156101000203166002900480601f016020809104026020016040519081016040528092919081815260200182805460018160011615610100020316600290048015610cf15780601f10610cc657610100808354040283529160200191610cf1565b820191906000526020600020905b815481529060010190602001808311610cd457829003601f168201915b50505050509450828054600181600116156101000203166002900480601f016020809104026020016040519081016040528092919081815260200182805460018160011615610100020316600290048015610d8d5780601f10610d6257610100808354040283529160200191610d8d565b820191906000526020600020905b815481529060010190602001808311610d7057829003601f168201915b50505050509250818054600181600116156101000203166002900480601f016020809104026020016040519081016040528092919081815260200182805460018160011615610100020316600290048015610e295780601f10610dfe57610100808354040283529160200191610e29565b820191906000526020600020905b815481529060010190602001808311610e0c57829003601f168201915b50505050509150808054600181600116156101000203166002900480601f016020809104026020016040519081016040528092919081815260200182805460018160011615610100020316600290048015610ec55780601f10610e9a57610100808354040283529160200191610ec5565b820191906000526020600020905b815481529060010190602001808311610ea857829003601f168201915b5050505050905095509550955095509550955091939550919395565b6000600115156002600084815260200190815260200160002060060160149054906101000a900460ff1615151415610f1c5760019050610f21565b600090505b919050565b6060806020604051908101604052806000815250905060006002600085815260200190815260200160002060050180549050905060008090505b8181101561109357826002600087815260200190815260200160002060050182815481101515610f8c57fe5b906000526020600020016040516020018083805190602001908083835b602083101515610fce5780518252602082019150602081019050602083039250610fa9565b6001836020036101000a038019825116818451168082178552505050505050905001807f20000000000000000000000000000000000000000000000000000000000000008152506001018280546001816001161561010002031660029004801561106f5780601f1061104d57610100808354040283529182019161106f565b820191906000526020600020905b81548152906001019060200180831161105b575b50509250505060405160208183030381529060405292508080600101915050610f60565b508192505050919050565b828054600181600116156101000203166002900490600052602060002090601f016020900481019282601f106110df57805160ff191683800117855561110d565b8280016001018555821561110d579182015b8281111561110c5782518255916020019190600101906110f1565b5b50905061111a919061111e565b5090565b61114091905b8082111561113c576000816000905550600101611124565b5090565b9056fea165627a7a72305820efd81baef7fe9ccdcf3a900ebef8443a186555d2e8c45ff0e32dfee733b7ada60029",
  "source": "\npragma solidity ^0.5.0;\n\ncontract Crime\n {\n  \n    string concat;   \n    bool exist;\n     struct Criminal\n      {\n          uint aadhar;\n          string name;\n          string addr;\n          uint age;\n          string fingerprint;\n          string[] hashes;\n          address sender;\n          bool append;\n      }\n     \n     mapping(uint => Criminal) criminals;\n     address[] nodes;\n     uint flag=0;\n     \n     \n     function getnode() public returns(address[] memory ) \n      {\n          return nodes;\n      }\n     function addnode(address _address) public \n      {\n          nodes.push(_address);\n          \n      }\n      \n     function doesnodeexist(address _address) public  returns(bool check)\n      {\n          for(uint i=0;i<nodes.length;i++)\n           {\n               if(_address==nodes[i])\n                {\n                    flag=1;\n                }\n           }\n          if(flag==1)\n           {\n               return true;\n           }\n          else\n           {\n               return false;\n           }\n      }\n     function append(uint _aadhaar,string memory _ipfshash) public\n      {\n          bool append=doesrecordexist(_aadhaar);\n          if(append==true)\n             {\n               criminals[_aadhaar].hashes.push(_ipfshash);\n               criminals[_aadhaar].sender=msg.sender; \n\n             }\n          else \n           {\n               revert(\"Cannot Append ..Record does not exist\");\n           }\n      }\n            \n            \n      function enterdetails(uint _aadhaar,string memory _name,uint _age,string memory _addr,string memory _fingerprint,string memory _ipfshash)  public\n      {\n            \n                 criminals[_aadhaar].aadhar=_aadhaar;\n                 criminals[_aadhaar].name=_name;\n                 criminals[_aadhaar].addr=_addr;\n                 criminals[_aadhaar].age=_age;\n                 criminals[_aadhaar].fingerprint=_fingerprint;\n                 criminals[_aadhaar].hashes.push(_ipfshash);\n                 criminals[_aadhaar].append=true;  \n                 criminals[_aadhaar].sender=msg.sender; \n            \n      }\n      \n      \n     function doesrecordexist(uint _aadhaar) private view returns(bool)\n      {\n          if(criminals[_aadhaar].append==true)\n           {\n               return true;\n           }\n          else \n           return false;\n      }\n      \n     \n     function stringconcat(uint _aadhaar) private view returns(string memory)\n      {\n          string memory res='';\n          uint len=criminals[_aadhaar].hashes.length;\n          for(uint i=0;i<len;i++)\n           {\n                res=string(abi.encodePacked(res, \" \" , criminals[_aadhaar].hashes[i]));   \n           }\n          return res;\n      }\n     function viewdetails(uint _aadhaar) public  returns(uint aadhaar,string memory name,uint age,string memory addr,string memory fingerprint,string memory ipfshash)\n      {\n          \n          concat = stringconcat(_aadhaar);\n          return (criminals[_aadhaar].aadhar,criminals[_aadhaar].name,criminals[_aadhaar].age,criminals[_aadhaar].addr,criminals[_aadhaar].fingerprint,concat);\n      }\n }",
  "sourcePath": "/home/nithin/Downloads/KBA/CED/finalproject/contracts/Crime.sol",
  "compiler": {
    "name": "solc",
    "version": "0.5.0+commit.1d4f565a.Emscripten.clang"
  },
  "schemaVersion": "3.0.1",
  "updatedAt": "2019-03-01T13:18:05.803Z",
  "devdoc": {
    "methods": {}
  },
  "userdoc": {
    "methods": {}
  }
}